:1000000057C1000071C100000C9498136DC100002D
:100010006BC1000069C1000067C1000065C100003C
:1000200063C1000061C100005FC100000C9429138E
:100030005BC1000059C1000044C3000055C100006D
:1000400053C1000051C100000C9472200C94402058
:100050004BC1000049C1000047C1000045C100007C
:1000600043C1000041C100006D0F20427F064333B1
:1000700002469908696D18412A0B5A840D479C085D
:100080004DD5084B3D0959B11952E40554921C56FF
:10009000E40657270658150F65A40666421F6C6EC6
:1000A0000674A30375531678E90200000000030FDD
:1000B0001E2627000000030F1E2536386700030F99
:1000C000256740605000030F275188838100030F8C
:1000D0002750C8C3C20027000000000000006700CE
:1000E000000000000000500000000000000081003F
:1000F000000000000000C20000000000000D2E2DD6
:1001000007D3913D04320000060021656A55E430B2
:1001100023B900070018146C070090876BF856117C
:10012000E92A001F4100072E050DD391FF080500A5
:10013000000C0021656A2D3B1322F862073F181D51
:100140001CC700B0876BF8B611EA2A001F410020D7
:100150002F2000203D2000504C4C310D0A00504C07
:100160004C300D0A005620312E36312043534D3885
:10017000363800202F2000203D20004C4F56460DE1
:100180000A000007022E030D04E905CA070C0B063E
:100190000D210E650F6A10C8119312031534173321
:1001A000181819161B4321562500261129592C8190
:1001B0002D353EC30B08105B11F81547191D1A1C8D
:1001C0001BC71C001DB221B623EA0007024604C665
:1001D00005260B0610C81193120313221534173F7E
:1001E000182819161B432156250026110D210E65CE
:1001F0000F6A070C160720F81E871F6B29592C81E0
:100200002D353EC3FF004C454E4552520D0A004C61
:100210004F56460D0A004C454E4552520D0A0042BB
:100220004F56460D0A000D2E2D07D3913D04320086
:1002300000060010B07155E43023B900070018140F
:100240006C070090876BF85611E92A001F41000DDA
:100250002E2D07D3913D04320000060010ABA555AA
:100260000A3023B900070018146C070090876BF858
:100270005611E92A001F410000535300547D7DFFB1
:10028000FF4B4B7E7E00454F420D0A004E2F410032
:100290004E2F410020697320756E6B6E6F776E294B
:1002A00020557365206F6E65206F66003F20280023
:1002B00011241FBECFEFD8E0DEBFCDBF11E0A0E01C
:1002C000B1E0E0EEF5E402C005900D92A631B10771
:1002D000D9F714E0A6E1B1E001C01D92A73DB10736
:1002E000E1F703D00C94EE228BCE88E10FB6F894A0
:1002F00080936000109260000FBE529A5A9A0E943A
:100300003C214FD589EF87BD84E085BD82E084BD67
:1003100080936E00109280008AE08093810090E0CC
:1003200080E80FB6F89480936100909361000FBE4F
:1003300084B7877F84BF2FE088E190E00FB6F89400
:10034000A895809360000FBE2093600089E190E83B
:100350000E94A2200E94711C0E94F40E89EF90E27C
:10036000909313038093120381E080931A010E94FB
:10037000721580911A01886080931A015A987894B6
:100380000E94C1200E94A910EBD10E948A1F0E94E6
:10039000FC160E94010A0E940E0DF2CF8EBD0DB414
:1003A00007FEFDCF8EB50895A1E0B0E0EAEDF1E0E3
:1003B0000C947A21482F8A3008F048E0E42EFF247C
:1003C00083E0EE0CFF1C8A95E1F78DEA90E0E80EE1
:1003D000F91E2BE230E001C0980189010F5F1F4F29
:1003E000F7016491C9014983D2D30894E11CF11C3F
:1003F00049810333110581F74550453010F461E11F
:1004000001C067E184E290E0C2D32196E6E00C945B
:100410009621CF93DF9382E090E001C0CE01EC0102
:100420002196FC01E550FF4F6491B1D3CB32D10549
:10043000A9F787E390E001C0CE01EC012196FC0111
:10044000E151FF4F6491A3D3C036D105A9F788E0ED
:10045000ABDFDF91CF9108952A98806C9FDF80E019
:100460009DDF2A9A0895A1E0B0E0E9E3F2E00C9460
:100470007C210196BE016F5F7F4F41E022D3009740
:1004800049F18981893991F400E010E0802FE4DF9F
:1004900014D3C801877090708730910509F49DD2FC
:1004A0000F5F1F4F0033110589F714C0D5DF082FE8
:1004B00083E440D2898101D383E591E081D2802F0A
:1004C000FCD28FE491E07CD2802F90E062E040E2A9
:1004D00088D283D22196E4E00C949821A1E0B0E088
:1004E000E4E7F2E00C947E212A988064698356DF69
:1004F0006981862F53DF2A9A2196E2E00C949A2193
:100500002A984CDF2A9A08951F931FEF05C08AE0AE
:1005100090E083D1112331F084E3F2DF1150807732
:100520008031A9F7E99A1F9108951F93E99886E30E
:10053000E7DF1FEF05C08AE090E06FD1112331F0B3
:1005400085E3DEDF115080778032A9F71F9108958F
:100550000F931F93CF93DF938C0110922101E998A1
:10056000229A2A9A8EE190E058D12A988EE190E062
:1005700054D12A9A8DE290E050D180E3C1DF84E625
:1005800090E04BD12A9880E409DFC0E0D0E0C801B8
:100590008C0F9D1F01D302DF2196C932D105B9F717
:1005A0002A9A2A988EE7FADE8BE290E001C0CE010B
:1005B000EC012196F1D2F2DEC333D105C1F72A9ABC
:1005C00083E39EDF81E02ED1DF91CF911F910F91C8
:1005D0000895A1E0B0E0EFEEF2E00C947E2122E07D
:1005E00029830196BE016F5F7F4F41E06AD2898106
:1005F000DBDE82E090E0ACDF2196E2E00C949A2111
:1006000086E37EDF1092140310921F0110922101E5
:10061000089582E090E09CDF81E0809314031092C3
:100620001F01109221010895FF920F931F93182F1D
:10063000F62E0FEF85E310DF811739F08F2D90E054
:10064000ECD0002321F00150F5CF80E001C081E023
:100650001F910F91FF90089585E2FEDE8F33F1F434
:1006600086E34EDF80911601882321F48EE591E028
:10067000A7D102C08DE344DF83E342DF81E064E081
:10068000D3DF85E2E9DE8F3349F4809116018823B8
:1006900039F487E591E094D181E0089580E00895F0
:1006A00081E0089585E3D8DE8D3051F485E2D4DE13
:1006B0008F3331F4D1DF84E323DF80778031D9F7C2
:1006C00008951F920F920FB60F9211248F939F934C
:1006D000AF93BF938091160390911703A0911803D5
:1006E000B09119030196A11DB11D8093160390933B
:1006F0001703A0931803B0931903809115038F5F1C
:1007000080931503809115038D3710F01092150317
:100710008091B8039091B903009729F001979093C5
:10072000B9038093B8038091CB038F3F19F08150B8
:100730008093CB03BF91AF919F918F910F900FBE8C
:100740000F901F90189580911903B7D180911803CD
:10075000B4D180911703B1D180911603AED13DC1C0
:100760008091160390911703A0911803B09119037B
:1007700020911801281709F44FC080911603909119
:100780001703A0911803B091190380931801A8953D
:100790008091B8039091B903009711F40E940C1E48
:1007A0008091CB03882311F40E946E1E8091A803D0
:1007B000882339F081508093A803882311F40E9484
:1007C000921780911503882339F58091000181FFEC
:1007D00004C08BB194E089278BB980911A03909162
:1007E0001B0323E08438920728F4019690931B039F
:1007F00080931A03809117018F5F809317018C33C8
:1008000059F4109217018091B5038F5F8093B5035F
:100810008C3310F01092B5030895880F991F01973B
:10082000F1F708951F93182F04C088EE93E0F5DFC9
:1008300011501123D1F71F910895CF93DF93FC013D
:100840008381843509F073C08081DF0150964DE0CB
:1008500001C04F5F481718F49D919B33D1F750E0CA
:1008600090E09C012F5030404217530709F05FC0C1
:10087000AC014E5050404E0F5F1FDA0113962C9181
:100880001397243509F053C0DC011B97AE0FBF1F2F
:10089000348111962C911197321709F048C0358197
:1008A00012962C911297321709F041C03681139697
:1008B0002C9113973217D9F5378114962C911497F0
:1008C0003217A9F541978E0F9F1F15962C911597FA
:1008D000EC012B83CA01019616962C911697EA011A
:1008E0002983AC014F5F5F4F19962C911997EC014A
:1008F0002983CA0101961A962C911A97EA01298335
:10090000AC014F5F5F4F1B962C911B97EC01298325
:100910001C968C911C97EA0189831D968C911D97DA
:100920008A8380818A50808382818A508283DF918A
:10093000CF9108951F93182F80911A0180FF0EC048
:100940008091CF038E3730F087FD08C01D3011F045
:100950001A3021F48DEC93E0612F3FD28091B303E4
:100960008823C9F080911A0183FF15C01A3099F0CD
:100970001D3011F46BE301C0612F83E293E02DD2AF
:100980001D3019F483E293E058DF83E08093A803DD
:1009900082E08093AE031F910895EF92FF92CF9370
:1009A000DF93E82EE7017E01F92EE70101C0C2DFE7
:1009B00089918823E1F7DF91CF91FF90EF9008951F
:1009C000CF93DF93EC0102C0B5DF2196FE01849145
:1009D0008823D1F7DF91CF9108958DE0ABDF8AE0D6
:1009E000A9CFA6E0B0E0E7EFF4E00C947A21F62E70
:1009F0001E8225E0E22E8E010F5F1F4F2AE030E0BD
:100A0000EA94F801EE0DF11DB9010E944721805DC5
:100A10008083CB01FA94009749F0EE2089F706C055
:100A2000EA94FC01EE0DF11D408302C0CE01019657
:100A3000FA94F7FC02C0EE2099F7CE0101968E0DD4
:100A4000911DABDF2696E6E00C949621A5E0B0E080
:100A5000ECE2F5E00C947E211D8254E09E012F5FB4
:100A60003F4F782F7F705150E52FF0E07A3010F42F
:100A7000705D01C0795CE20FF31F708374E096959E
:100A800087957A95E1F76150009759F706C0515064
:100A9000FC01E50FF11D408302C0CE0101966150BB
:100AA00067FD02C0552399F7CE010196850F911D70
:100AB00074DF2596E2E00C949A2190E062E040E336
:100AC000C5CFFC019B012AC0A92FA053AA3018F45E
:100AD0008A2BA1E001C0A0E0B92FB154B63020F4B8
:100AE000A92FA7538A2BA1E0B92FB156B63018F41D
:100AF0009755892B07C0AA2329F4903289F09A339D
:100B000091F40EC0552331F0D9018D939D014150D0
:100B100029F409C08295807F51E002C050E080E056
:100B20009191992389F6261B370BC9010895FC0181
:100B300080E090E013C0242F20532A3078F49C01E9
:100B4000220F331F53E0880F991F5A95E1F7280FA2
:100B5000391F842F90E0C097820F931F4191442347
:100B600051F7FB01918380830895FB01982F9295A3
:100B70009F709A3010F4905D01C0995C90838F70E3
:100B80008A3010F4805D01C0895C818308950E94E1
:100B9000E022F999FECF08950C94D82208951F936E
:100BA000CF93DF93162F0AC01150EC012196F4DF8A
:100BB00084DF112311F08AE3BDDECE011123A1F7FA
:100BC000DF91CF911F910895A2E0B0E0EAEEF5E049
:100BD0000C947B21FC01019621812D3421F48AEFB4
:100BE00093E066E005C0203529F48AED93E060E1EA
:100BF000D6DF28C01A821982BE016F5F7F4F42E0A4
:100C000060DF0981823039F4902F80E00A8110E0A2
:100C1000082B192B01C010E0C801BEDFF82E82E5B9
:100C200089DEC80164E040E311DF87E791E0C8DEB8
:100C30008F2D43DF83E791E0C3DE8F2D90E062E0EC
:100C400040E2CFDECADE2296E5E00C949721A6E0D2
:100C5000B0E0EDE2F6E00C9478216C010196BE0163
:100C60006F5F7F4F43E02DDF8230A0F1E98082305B
:100C700011F4FF2406C03E2D20E0EA80FF24E22A82
:100C8000F32A082F10E0FE01E00FF11FC701608179
:100C90007EDF000F111F0F5F1F4F0C0D1D1D0894ED
:100CA000E11CF11C6E010894C11CD11C0FC0C801CD
:100CB000B60141E006DF009769F0C701698167DF8F
:100CC0000E5F1F4F82E090E0E80EF91EF801808170
:100CD000882369F72696E8E00C949421019660E059
:100CE00071E041E0EEDE8091000180FF02C05A9A7F
:100CF00001C05A9884E390E06091000148CFA1E0E0
:100D0000B0E0E5E8F6E00C947E211982009731F01E
:100D10000196BE016F5F7F4F41E0D3DE898188235A
:100D200021F083E390E061E032DF10926E00F894EE
:100D300028E088E190E00FB6F894A89580936000D1
:100D40000FBE20936000FFCFCF93DF93EC0180E0D4
:100D500090E061E01CDF81E090E06DE318DF59DB9B
:100D600080E690E060E013DF81E690E060E00FDF76
:100D700083E390E060E00BDF84E390E062E007DF74
:100D800080E690E060E003DF81E690E060E0FFDE77
:100D90008981883719F080E090E0B1DFDF91CF9151
:100DA000089580E090E0F8DE813029F481E090E061
:100DB000F3DE8D3319F080E090E0C6DF84E390E04D
:100DC000EBDE80930001089585E691E0F9DD05CE24
:100DD000FC011282108211820895FC018FB7F894F1
:100DE000928197FD0EC09F5F92839081DF01A90FD2
:100DF000B11D13966C9313979F5F9083903809F4FD
:100E000010828FBF0895FC019FB7F89482818823D8
:100E100011F49FBF0895815082832181DF01A20FC9
:100E2000B11D13968C9113972F5F2183203809F4FD
:100E300011829FBF0895FA019081882371F0DB0130
:100E4000A90FB11D41E050E0022E02C0440F551F12
:100E50000A94E2F78C91842B8C93222319F0822F31
:100E6000815009C09F5F9C3008F49083690F711D09
:100E7000FB01108287E090E008951F93182F289AB5
:100E8000882319F080911D0102C080911B0190E020
:100E900034E0880F991F3A95E1F7BFDC28981123B9
:100EA00019F080911E0102C080911C0190E024E0A5
:100EB000880F991F2A95E1F7B0DC1F910895A6E0ED
:100EC000B0E0E5E6F7E00C946E212C01F62E842EBE
:100ED000C22E642E772420911A0330911B03C30184
:100EE0000296089F802D1124992787FD9095281739
:100EF000390720F48BE791E063DD87C0281B390BAD
:100F000030931B0320931A035A9A8091210188235E
:100F100039F01092210181E091E087D711E001C002
:100F200010E080911403882309F473DBFEDA2F2D7F
:100F300030E03A83298371E0A72EB12C8C2D90E00C
:100F40009C838B83992487FC9094840C951CCC24DF
:100F5000DD2405C080E091DF0894C11CD11CE9812B
:100F6000FA81CE16DF06B4F3FF2011F081E085DFB1
:100F700040E050E01FC067E0C62ED12C1201240EC5
:100F8000351EC5010C2C02C0880F991F0A94E2F788
:100F9000F101208182234D835E836FDF0894C108B5
:100FA000D1084D815E81FFEFCF16FFEFDF0649F7D5
:100FB0004F5F5F4F46155705F4F247E0C42ED12C22
:100FC0000EC0C5010C2C02C0880F991F0A94E2F7CD
:100FD000F4012081822351DF0894C108D1082B81BC
:100FE0003C812C153D056CF38E2D1CDC015009F065
:100FF000AECF80911C03882311F086DA02C086E30D
:101000007FDA112309F03ED35A982696E2E10C9438
:101010008A21AEE0B0E0EFE0F8E00C946E217C01B4
:10102000162F842F022FB701412F18D7F701E10F98
:10103000F11D80831F5F1E8719821A82470127E0F6
:1010400010E081E0482E512CB2E06B2E712C6C0E1A
:101050007D1E5E010894A11CB11C32C0A7E0CA2EFF
:10106000D12C1701210E311CA2010C2C02C0440FFF
:10107000551F0A94E2F7F10180818423B301A50191
:10108000DADE282F0894C108D108FFEFCF16FFEF52
:10109000DF0651F7F40141914F01042E429540259E
:1010A000042E46954695402550E04F5F5F4F55957D
:1010B0004795842F8170B301A501BDDE282F1F5FE6
:1010C000FE851F1758F2222311F0215004C0898198
:1010D0008F5F898327E089E180931C0180931B0146
:1010E00085E280931E0180931D01CE0102966CE083
:1010F0004981EAE0EE2EE3DE2E96E2E10C948A21AD
:10110000ADE0B0E0E6E8F8E00C947B21F62E242F69
:1011100001968E010F5F1F4FB8014BE02D87D1DC88
:10112000682FC8014F2D2D8574DF2D96E5E00C94B6
:10113000972166E043E0E4CFEF920F93DF93CF93E4
:10114000CDB7DEB760970FB6F894DEBF0FBECDBF48
:101150000196BE016F5F7F4F40E1B3DC69812A8158
:101160008B819C8190931B019D8190931C019E819A
:1011700090931D019F8190931E01422F42954F70C5
:101180002F70082F0F70E82EE2949FE0E922CE0125
:10119000089695DE60960FB6F894DEBF0FBECDBF01
:1011A000CF91DF910F91EF900895A9E1B0E0EBEDC1
:1011B000F8E00C9472218E01025F1F4F0196B80176
:1011C0004BE07FDC893009F054C089E180931C0139
:1011D00080931B0180931D0182E380931E01C8014F
:1011E00069E046D68F8B19821A82780168E1662EF3
:1011F000712C6C0E7D1E27E051E0852E912C42E073
:10120000A42EB12CAC0EBD1E6E010894C11CD11CC5
:101210001DC000E010E0A401002E02C0440F551FC5
:101220000A94E2F7F70180818423B501A60103DE69
:10123000282F0F5F1F4F0830110569F781E0B501B6
:10124000A601F9DD282F0894E11CF11CE614F7042F
:1012500001F7222311F0215004C089818F5F898317
:1012600027E0CE0102966CE0498103E03AE0E32EEC
:1012700026DE6996EEE00C948E21A9E1B0E0E3E46D
:10128000F9E00C946E218E01025F1F4F0196B801A8
:101290004BE017DCC82E85E380931B0196E1909309
:1012A0001C0190931D0180931E01C8016C2DECD58B
:1012B000F801EC0DF11D8083C39419821A82580144
:1012C00027E0DD24F1E06F2E712C1801E2E08E2E74
:1012D000912C8C0E9D1E7E010894E11CF11C3EC0D9
:1012E00000E010E021014D0C511CA301002E02C0B2
:1012F000440F551F0A94E2F7F20180818423B40160
:10130000A70199DD282F0F5F1F4F0430110569F7E2
:1013100081E0B401A7018FDD282F00E010E0A801D3
:101320004C5F5F4FC30102C0880F991F4A95E2F7D7
:10133000AC01F50180818423B401A7017CDD282F55
:101340000F5F1F4F0430110551F781E0B401A70171
:1013500072DD282FD3940894A11CB11CDC1408F46E
:10136000BFCFCE0102966AE0498103E07AE0E72E22
:10137000A6DD6996E2E10C948A21CF93DF93E99888
:10138000229A2A9A8EE190E048DA2A988EE190E03B
:1013900044DA2A9A8DE290E040DA80E3B1D884E61C
:1013A00090E03BDAC1E0D0E0FE01EF57FE4F8491C0
:1013B000FE01EE57FE4F649191D82296C333D105BA
:1013C00099F780912001882379F0C1E0D0E0FE01F7
:1013D000ED54FE4F8491FE01EC54FE4F64917ED893
:1013E0002296C731D10599F783E38AD884E01ADAC7
:1013F00084E386D885E330D88D30D1F7DF91CF9163
:101400000895A2E3B0E0E7E0FAE00C947A2180913D
:101410001F01882309F490C0199B7AC08FE31CD860
:101420008F778983823348F08AE36AD886E368D865
:101430008DE366D884E364D87FC02A988FEF0E943A
:10144000CE01FF248E010E5F1F4F08C080E00E9476
:10145000CE01F801EF0DF11D8083F3948981F81618
:10146000A8F380E00E94CE01E82E80E00E94CE0129
:101470002A9A84E345D885E30E942C028D30C9F76F
:101480009A8186E789278A8382E09E012F5F3F4FFA
:1014900008C0E20FF31F40819452942790838F5F1E
:1014A000942F4981E82FF0E0841798F3E20FF31F9F
:1014B00080819B818927808380911C0384FF11C0D8
:1014C00081E638DAFF248E010F5F1F4F06C0F80156
:1014D000EF0DF11D80812EDAF39489818F15B8F715
:1014E00017C081E427DAFF248E010F5F1F4F06C06B
:1014F000F801EF0DF11D8081E0DAF39489818F15F9
:10150000B8F780911C0385FF02C08E2DD6DA65DA0C
:1015100085E30E942C02813029F0813161F48AE355
:101520000E94800286E30E9480028DE30E94800276
:1015300084E30E948002B6D8E296E6E00C949621FD
:10154000A2E3B0E0E6EAFAE00C9479210196BE014C
:101550006F5F7F4F41E3B5DAD82E282F30E021505E
:101560003040498150E02417350709F06FC0809161
:101570001F01882319F401DF83E054D90B818A818C
:1015800096E789278A8392E0AE014F5F5F4F0CC0D8
:10159000DA01A20FB31F2C0F3D1FF9018081845285
:1015A0002C9182278C939F5F8981292F30E0981797
:1015B00078F3FA01E20FF31F80818027808385E3AF
:1015C0000E94800285E30E942C028331C1F704FF50
:1015D00006C088E727D988E725D988E701C08AE0CF
:1015E00021D92A988FE70E94CE017E010894E11C40
:1015F000F11C870105C0F80181918F010E94CE0185
:10160000802F8E198D15B8F32A9A85E30E942C023B
:101610008331D9F385E30E942C02863149F48BE3B0
:101620000E94800286E30E9480028DE30E94800275
:1016300080911F01882349F084E30E94800285E3A2
:101640000E942C028D30C1F701C0E5D3E296E7E09D
:101650000C949521FC0101962181223731F022352D
:1016600059F481E08093200102C01092200185DEB0
:1016700081E080931F010895233709F461CF109210
:101680001F0108951F93CF93DF93E998229A2A9A16
:101690008EE190E0C2D82A988EE190E0BED82A9AD6
:1016A0008DE290E0BAD880E30E94800284E690E068
:1016B000B4D8C1E0D0E0FE01E753FE4F84918134FD
:1016C00050F4FE01E653FE4F64910E946E02229692
:1016D000CD33D10581F783E30E94800284E0A2D854
:1016E0001FEF84E30E9480028AE090E096D81150B8
:1016F000C1F781E080932101DF91CF911F9108957F
:10170000CF92DF92EF92FF921F93CF93DF93EC0182
:101710007B0118811F5F6115710519F024E630E027
:1017200002C020E030E0812F90E043E0880F991F55
:101730004A95E1F76AE070E00E945B21620F731F37
:10174000CB01AA2797FDA095BA2FE0911A03F0913B
:101750001B039F0140E050E0281739074A075B0749
:1017600020F48FE092E02CD9C5C0E61BF70BF09374
:101770001B03E0931A0380912101882309F482DF7F
:1017800085E30E942C028D3051F08AE5D3D885E4A0
:10179000D1D882E5CFD882E5CDD881E344C080910D
:1017A000280190912901A0912A01B0912B01009765
:1017B000A105B10519F427C081E034D820911603A2
:1017C000309117034091180350911903809128011B
:1017D00090912901A0912A01B0912B012817390776
:1017E0004A075B0749F32091160330911703409194
:1017F0001803509119030196A11DB11D281739072F
:101800004A075B07C9F20E94950285E30E942C02F9
:10181000833189F08AE58ED885E48CD882E58AD830
:1018200082E588D882E386D885E30E942C0245D9D8
:10183000D4D828DF5FC0E114F10461F08AE0E82E1B
:10184000F12C84E60E9412040894E108F108E114E6
:10185000F104B9F72A988FE70E94CE016E01EC2EB1
:101860008D2D2C2FE9016E01D82EE60103C0899140
:101870000E94CE016E01CE18C116C8F32A9A10E05C
:1018800085E30E942C028D3059F085E30E942C02E2
:10189000833131F481E00E9412041F5F183C81F70C
:1018A00085E30E942C028D3081F08AE543D885E4DF
:1018B00041D882E53FD882E53DD883E33BD885E334
:1018C0000E942C02FAD889D8DDDE8091210188237C
:1018D00009F4A1D28091160390911703A0911803E7
:1018E000B09119038093280190932901A0932A01B4
:1018F000B0932B01DF91CF911F91FF90EF90DF907C
:10190000CF900895ACE0B0E0E8E8FCE00C947B21D7
:10191000FC018BE0898381818A831B8282E08C8336
:1019200087818D8380858E8381858F83848188875D
:101930008581898786818A871B861C8684E10E942F
:1019400012048E010F5F1F4FC80160E070E0D8DE07
:101950008AE50E949A04FF2406C0800F911FFC01B3
:101960008081ABD8F3948F2D90E0298130E0281747
:1019700039079CF780911C0385FF02C080E09DD849
:101980002CD82C96E5E00C949721CF93DF93EC01B3
:1019900090912201992341F480912301882321F41D
:1019A000809124018823B1F48B81803321F080342D
:1019B00011F0803579F48F81891761F498858091D1
:1019C0002301981739F4998580912401981711F40F
:1019D000CE0198DF80912501882341F49091260162
:1019E000992321F4909127019923A9F098819B30A4
:1019F00091F49B81903479F49F81981761F49885D4
:101A000080912601981739F49985809127019817BC
:101A100011F4CE0177DFDF91CF910895AEE1B0E010
:101A2000E4E1FDE00C947A2180912101882309F4FE
:101A300067C0199B57C08FE30E942C028F77898360
:101A40008E3110F08DE189832A988FEF0E94CE01AC
:101A5000FF248E010E5F1F4F08C080E00E94CE0160
:101A6000F801EF0DF11D8083F3948981F816A8F336
:101A700080E00E94CE01F82E80E00E94CE012A9ADA
:101A80008E010F5F1F4FC80180DF80911C0384FF10
:101A900010C08AE70E949A04FF2407C0F801EF0DE6
:101AA000F11D80810E949A04F39489818F15B0F70B
:101AB00027C08AE50E949A04EE2407C0F801EE0DC3
:101AC000F11D80810E945D05E39489818E15B0F738
:101AD00080911C0385FF03C08F2D0E945D050E942D
:101AE000ED040EC085E30E942C02813149F48AE3A3
:101AF0000E94800286E30E94800284E30E948002AA
:101B00006E96E6E00C949621AEE1B0E0EAE8FDE0E6
:101B10000C947C218C01FC018181823711F4B2DDAF
:101B200037C0833711F0863601F5C8010296BE0131
:101B30006F5F7F4F4DE10E94610590E00197298121
:101B400030E08217930729F086E092E00E94E004DB
:101B50001FC061E070E0F8018181833711F060E01F
:101B600070E0CE010196CCDD13C0813629F4C801A6
:101B7000029662E271E006C0873741F4C80102961E
:101B800065E271E043E00E94610502C0109221010C
:101B90006E96E4E00C949821A0E0B0E0E2EDFDE068
:101BA0000C947821FC011092B6011092A101518190
:101BB000550F550F550F8381581B595F1092A20185
:101BC00070E040E0B7E0EB2E17E0FF2400E0C7E054
:101BD000D0E021E030E082C0DF01AF0DB11D1496EE
:101BE0008C91149790E0012E02C0959587950A94E8
:101BF000E2F7DD24D394D822112311F0115002C052
:101C0000F39417E06B3459F48E2D833041F477232D
:101C1000B9F5DD2009F061C01092B60125C08E2D06
:101C20008F3F79F56634C1F4A42FB0E0AE55BE4FB6
:101C30008C91082E82958025082E86958695802584
:101C400090E001969595879581709070AD2DB0E0EC
:101C50008A179B0761F006C0653411F06B3439F4C4
:101C6000DD2029F47093B6014093A10154C04F5F69
:101C7000A42FB0E0AE55BE4F1C9287E0E82E2EC0D8
:101C800070E0DD2041F1663461F4A42FB0E0AE5580
:101C9000BE4FC9010E2C02C0880F991F0A94E2F7AB
:101CA00017C0653411F06B34B1F4A42FB0E0AE5519
:101CB000BE4F8E2D992787FD90956E01C81AD90ABF
:101CC000C601690102C0CC0CDD1C8A95E2F7C60191
:101CD000DC90D82ADC92EA9401C071E00F5F802F7B
:101CE0008150851708F478CF7093B6014093A10115
:101CF000501788F4653419F48E2D8F3F21F08091B0
:101D0000B601882319F04F5F4093A10181E09091C3
:101D1000A101992309F480E0CDB7DEB7E8E00C9487
:101D2000942110926F0020912C0130E08CE190E022
:101D3000289FF001299FF00D389FF00D1124E35DDD
:101D4000FE4F10820895FC01A181B0E050E0208197
:101D5000CD01841B950B0B9687319105D0F430E0B3
:101D600070E0C901861B970B8C30910594F4EFEF5E
:101D7000853F9E0774F02A0F3B1F261B370B241B41
:101D8000350B2C3031053CF481E09FEF253F3907BE
:101D90001CF480E0089580E00895FC012181243145
:101DA00008F0BFCF662391F0DC01A20FB11D81E0E6
:101DB00090E0038002C0880F991F0A94E2F71496FE
:101DC0003C911497382B14963C9314978381982F49
:101DD00091509383882339F487E083832F5F218395
:101DE000E20FF11D14820895209A28982198E9E6BF
:101DF000F0E080818460808382EC91E090931B030B
:101E000080931A031092490110926501109281018A
:101E100010921403089580911C03882321F00E94DE
:101E200009030C9484020C940003FC0101962181A7
:101E3000222371F480911C030E945D0580911A0396
:101E400090911B0365E040E20E94F1040C94ED04C4
:101E50006CE173E041E00E946105DDCF06C04150B6
:101E6000FB01E40FF11D9081890F4423C1F7089510
:101E70009C0180E006C06150F901E60FF11D9081E0
:101E800089276623C1F708959C01A091B60140E01F
:101E900085E090E012C06150F901E60FF11D50811C
:101EA000752F72957F709727870FAA2311F044230F
:101EB00019F05F709527850F4F5F662361F7890FD3
:101EC0008295807F892B0895FC0132812381A08136
:101ED000B181A30FB11D8C9190E0022E02C09595A7
:101EE00087950A94E2F78170922F91509383222371
:101EF00021F43F5F328397E0938308958F929F92FE
:101F0000BF92CF92DF92EF92FF920F931F93DF93D6
:101F1000CF9300D0CDB7DEB76C01862E99240894FC
:101F20008108910800E010E0BB2481E0E82EF12C4C
:101F30001FC0C6014A836983C7DF4A81698188233C
:101F400091F0442341F09701082C02C0220F331F67
:101F50000A94E2F707C09701002E02C0220F331F38
:101F60000A94E2F7B22A0F5F1F4F08948108910884
:101F70000617F8F28B2D0F900F90CF91DF911F91E4
:101F80000F91FF90EF90DF90CF90BF909F908F9038
:101F90000895A4E0B0E0EFECFFE00C947721FC01A1
:101FA0001B8287E08C83CF0104969A8389831092E9
:101FB000A101218130E053E0220F331F5A95E1F750
:101FC0008381281B31092E3331050CF454C0DD24E4
:101FD0008E010F5F1F4F2CC0EC2CFF24C80168E05E
:101FE00040E08CDF22EA31E0E20EF31EF70180834D
:101FF000B82E0B2CB294B0240B2CB694B694B0240B
:10200000C80162DF2B2D30E02F5F3F4F35952795BC
:102010002170307090E02817390769F5C80154DF46
:10202000882349F5F7018081D826C394C092A10185
:10203000C090A101FC2DF63078F2C80168E040E0C4
:102040005DDFC82EE82E0E2CE294E0240E2CE694E0
:10205000E694E024C80138DF2E2D30E02F5F3F4F9B
:102060003595279521703070482F50E0241735079B
:1020700011F481E0DC1080E02496E9E00C949321D7
:10208000A5E0B0E0E6E4F0E10C947721FC011B82CE
:1020900087E08C83CF0104969A8389831092A101F3
:1020A0008081853009F050C0218130E073E0220F3B
:1020B000331F7A95E1F78381281B310929383105CF
:1020C00009F042C06FE0E62E60EFF62E29E88E019F
:1020D0000F5F1F4F11C0C80168E041E02D830EDF84
:1020E000E80EF11CF601EE55FE4F2D8128272083C6
:1020F000282F2C5DB092A1018091A101C82EDD2472
:10210000B82EB3948F3038F3C80168E041E0F6DEB2
:10211000E80EF11CF601EE55FE4F80958083B092DB
:10212000A101C80168E041E0E9DEC82EC80168E00D
:1021300041E0E4DE3C2D20E0E21AF30A282F30E0F3
:1021400081E0E216F30609F080E02596E9E00C94C0
:102150009321A0E0B0E0EFEAF0E10C9478218091C7
:102160009E018823B9F180911C0387FF17C084E387
:102170000E942C028058803458F0803C58F490E043
:102180008055904063E0959587956A95E1F703C087
:1021900080E001C08FE08F590E949A0480911C0357
:1021A00083FF16C082E70E949A0480911C0384FF7B
:1021B00004C080919D010E949A0486E60E949A04C0
:1021C00080911C0384FF04C080919E010E949A04A8
:1021D00010929E0180919F01882309F435C25A9A7A
:1021E0000091A00110E08CE190E0089FE001099FC0
:1021F000D00D189FD00D1124C35DDE4FCE0140DFFE
:102200008823D9F5CE0166E4C7DC882309F4F3C13D
:10221000E090A101EA94E092A10186E062EA71E017
:102220004E2D1CDE6E2D70E0FB01EE55FE4FD08072
:102230008D1519F49E2D943018F5282F30E02F5F5E
:102240003F4FED2DF0E02E173F0741F4AE2DA430A7
:1022500028F06E557E4FFB01808312C08CE062EA4D
:1022600071E04E2DFBDD8D1509F0C5C1FE2DF4305A
:1022700008F4C1C154E5D52E4AC043E5D42E47C069
:1022800036E4D32E44C08091A10181508093A101F6
:10229000893009F0B6C182EA91E069E0E9DD909108
:1022A000AB01891709F0ADC125E4D22E30C098E406
:1022B000D92E2DC0E090A101EA94E092A10182EA1A
:1022C00091E06E2DE1DDEE2DF0E09091B601E91B7D
:1022D000F109EE55FE4F90818917B9F08CE190E03D
:1022E000089FF001099FF00D189FF00D1124E35D88
:1022F000FE4F8381982F9F5F9383873009F0A2C19F
:1023000013828181815081839DC18BE4D82E80917D
:102310001C0380FFB6C081FD5BC03091B7016091A6
:10232000A101361781F51092B70120E00FC0822F6E
:1023300090E0422F4F5FFC01E854FE4F8E559E4FB8
:102340005081DC018C91581719F4242F231778F34E
:102350002317C9F48091160390911703A0911803D5
:10236000B09119032091CC013091CD014091CE0163
:102370005091CF01821B930BA40BB50B86329105B4
:10238000A105B10510F020E001C021E030E00BC054
:10239000832F90E0FC01E854FE4F8E559E4FDC01E8
:1023A0008C9180833F5F361798F33093B70180910B
:1023B000160390911703A0911803B091190380930D
:1023C000CC019093CD01A093CE01B093CF0101C079
:1023D00020E0BD2DB435F9F480911C0386FD1BC0AF
:1023E0008091A1018530B8F08091A4018B3409F46B
:1023F00048C0893609F445C0833509F442C08435A4
:1024000009F43FC08D37E9F18E37D9F18091A501EC
:1024100080778037B1F12223A1F58D2D0E949A0497
:102420008091B601882329F08091A1018150809389
:10243000A101EE2408C0EE2DF0E0EE55FE4F8081A4
:102440000E945D05E394E091A101EE16A0F3809156
:10245000B601882359F0F0E0EE55FE4F808190E000
:102460008F70907061E040E30E94260580911C030C
:1024700085FF05C084E30E942C020E945D050E9436
:10248000ED0480911C0382FF93C080E70E949A04B0
:102490008CE190E0089FE001099FD00D189FD00DBE
:1024A0001124C35DDE4F888190E062E040E20E942B
:1024B000F104888D90E0B4E0880F991FBA95E1F798
:1024C00065E040E20E94F104898D90E0A4E0880F6D
:1024D000991FAA95E1F765E040E20E94F1048A8D18
:1024E00090E0F4E0880F991FFA95E1F765E040E28B
:1024F0000E94F1048B8D90E0E4E0880F991FEA952B
:10250000E1F765E040E20E94F1048A8190E063E037
:1025100040E20E94F104898190E063E040E20E9481
:10252000F1042B8187E090E0821B910962E040E298
:102530000E94F10480E20E949A0480911C0385FFAE
:1025400008C084E30E942C020E945D0580E20E9484
:102550009A048CE190E0089FF001099FF00D189F0C
:10256000F00D1124E35DFE4F8381873019F08181E6
:102570008F5F8183CC248CE190E0089FE001099F6C
:10258000D00D189FD00D1124C35DDE4F7E0108943D
:10259000E11CF11C07C0FE01EC0DF11D84810E94BD
:1025A0005D05C394F7018081C816A8F30E94ED046D
:1025B0008CE190E0089FF001099FF00D189FF00D4D
:1025C0001124E35DFE4F108280919F018150809322
:1025D0009F018091A0018F5F8093A001843011F44E
:1025E0001092A0015A98FD2DF43571F582EA91E020
:1025F0000E947D1E29C0CE0165E4CEDA882309F051
:1026000042CECE01C6DC882309F051CE2CE130E069
:10261000029FC001039F900D129F900D1124FC0199
:10262000E35DFE4F895B9E4F60919D01438D8BDB87
:10263000682FCE01B2DBCE016BE4AEDA882309F05D
:1026400039CE4CCEDD241DCFCDB7DEB7E8E00C94FB
:1026500094211F920F920FB60F9211242F933F9344
:102660004F935F936F937F938F939F93AF93BF939A
:10267000EF93FF9310926F0080911C0383FF03C0C0
:102680008EE20E949A0440912C01242F30E08CE1CC
:1026900090E0289FF001299FF00D389FF00D112444
:1026A000E35DFE4F8081833078F08181823060F07D
:1026B00080919F01833051F480911C0382FF04C0FC
:1026C0008FE192E00E94E0042CDB0BC08F5F8093CF
:1026D0009F01842F8F5F80932C01843011F410921E
:1026E0002C01FF91EF91BF91AF919F918F917F91BD
:1026F0006F915F914F913F912F910F900FBE0F906F
:102700001F901895982F9552973160F46A3050F0C9
:10271000673258F421E030E0681710F020E030E034
:10272000C901089580E090E0089580E090E0089568
:102730001F920F920FB60F921124CF92DF92EF9259
:10274000FF920F931F932F933F934F935F936F933A
:102750007F938F939F93AF93BF93EF93FF93DF93F9
:10276000CF9300D0CDB7DEB78091CC03882321F082
:1027700082E08093CC037EC18091A903823021F452
:1027800083E08093A90376C18091840090918500B5
:1027900024E0969587952A95E1F7782F00912C01F2
:1027A00010E02CE130E0029FF001039FF00D129F3A
:1027B000F00D1124E35DFE4F8081843031F47E32D0
:1027C00008F458C17F3448F054C1853031F4773172
:1027D00008F450C1783208F04CC14CE150E0049F3D
:1027E0009001059F300D149F300D11249DE2C92EDC
:1027F00091E0D92EC20ED31E19990FC08450823099
:1028000048F4C60161E07983C8DA1092850010921D
:102810008400798170939D012DC1E0909D01F72E78
:10282000FE18F0929E011092850010928400F6012D
:1028300080818450823020F4C60160E0AEDA1AC193
:1028400082E086BBF60180818823D1F4FE2DF53627
:1028500008F010C18F2D853608F00CC18CE190E096
:10286000089FF001099FF00D189FF00D1124E35D02
:10287000FE4FE08EF18E81E0828382E08083FAC099
:10288000823009F0A0C0C9018B5B9E4F6E2D4F2D89
:102890005ADAF60142818823F9F0208D30E0C9012F
:1028A000880F991F820F931F8E0D911D9595879507
:1028B00095958795808F218D30E0C901880F991FEC
:1028C000820F931F8F0D911D9595879595958795EF
:1028D000818F4F5F4283CEC0443008F471C080EADC
:1028E0009FE09093890080938800F60182818C306C
:1028F00050F0218D808D90E0820F911D85369105DD
:1029000024F084E047C08A30E0F08CE190E0089F3A
:10291000F001099FF00D189FF00D1124E35DFE4FAB
:10292000218D808D90E0820F911D853291054CF4B0
:1029300085E0808388EE93E09093890080938800FF
:102940002AC0809122038823C9F08E2D6F2DDADEF4
:102950008823A1F08CE190E0089FF001099FF00D21
:10296000189FF00D1124E35DFE4F818D608DCADE4E
:10297000882321F081E08093A9037BC08CE190E063
:10298000089FF001099FF00D189FF00D1124E35DE1
:10299000FE4F83E080838CE190E0089FF001099F67
:1029A000F00D189FF00D1124E35DFE4FE28EF38EC3
:1029B000118287E08383148282E080936F005AC083
:1029C000F601108243CFC901895B9E4F6E2D4F2DBA
:1029D00029833A83B8D929813A81882309F1C6012C
:1029E00061E0DBD9F601228D30E0C901880F991F23
:1029F000820F931F8E0D911D9595879595958795BF
:102A0000828F238D30E0C901880F991F820F931F99
:102A10008F0D911D9595879595958795838F2AC0E4
:102A2000C9018B5B9E4F6E2D4F2D8DD9882309F1E7
:102A3000C60160E0B2D9F601808D90E09C01220FC2
:102A4000331F280F391F2E0D311D359527953595CC
:102A50002795208F218D30E0C901880F991F820FA3
:102A6000931F8F0D911D9595879595958795818FCE
:102A700001C057D90F900F90CF91DF91FF91EF9147
:102A8000BF91AF919F918F917F916F915F914F9186
:102A90003F912F911F910F91FF90EF90DF90CF907A
:102AA0000F900FBE0F901F90189520912C0130E0D1
:102AB0008CE190E0289FF001299FF00D389FF00DE8
:102AC0001124E35DFE4F8081882349F481E090E08A
:102AD0002091CB032F3F29F480E090E0089581E01E
:102AE00090E0089580E690E00E94CC058093220358
:102AF00081E690E00E94CC058093B303882321F007
:102B000081E280931C0387C90895289A0C940D04D0
:102B100028980C940D04A7E0B0E0E1E9F5E10C94ED
:102B2000792190912B03943559F42091AC03309185
:102B3000AD032F5F3F4F3093AD032093AC033EC0F6
:102B4000963459F42091AA033091AB032F5F3F4F85
:102B50003093AB032093AA0331C0953459F42091EC
:102B60001F03309120032F5F3F4F309320032093AA
:102B70001F0324C09B3459F42091AF033091B0035C
:102B80002F5F3F4F3093B0032093AF0317C09834AB
:102B900059F42091B1033091B2032F5F3F4F30932E
:102BA000B2032093B1030AC020911D0330911E038C
:102BB0002F5F3F4F30931E0320931D0395E79983AA
:102BC000882399F08091B303BE016E5F7F4F0E940E
:102BD000B50580912203BE016C5F7F4F0E94B50551
:102BE00085E58E8386E0D82E02C0DD24D3940E9432
:102BF00009030E94950206E080E891E086DF80E00C
:102C000093E086DF0150C1F780E093E07EDF80E84B
:102C100091E07EDF80E891E078DF289887E390E01C
:102C20000E94A80283E00E9412042A988FE70E9463
:102C3000CE01809125038D0D0E94CE017E01089466
:102C4000E11CF11C8701F80181918F010E94CE01E6
:102C5000802F8E198D15B8F306C083E293E00E9491
:102C600003070E94CE01809125038823B1F72A9A99
:102C70000E94950283E293E00E94E80604E104C00A
:102C8000015081E00E9412048AE30E942C0290E02D
:102C90008F779070009711F0002391F7BCD827969A
:102CA000E7E00C9495210F931F93CF93DF93EC01F2
:102CB0008C010F5F1F4F8981882339F48091220393
:102CC0000E945D058091B30313C08436A1F4809106
:102CD000160390911703A0911803B091190364E0B3
:102CE00040E30E9426058EE20E949A048091A80388
:102CF0000E945D054DC0833709F04DC08091AC0343
:102D00009091AD0361E040E30E9426058EE20E94AF
:102D10009A048091AA039091AB0361E040E30E9482
:102D200026058EE20E949A0480911F039091200351
:102D300061E040E30E9426058EE20E949A048091A1
:102D4000AF039091B00361E040E30E9426058EE25C
:102D50000E949A048091B1039091B20361E040E334
:102D60000E9426058EE20E949A0480911D03909194
:102D70001E0361E040E30E9426058EE20E949A0451
:102D80008091A6039091A70361E040E30E9426058D
:102D90000E94ED042CC08936D9F4CE01029662E27D
:102DA00073E041E00E94610580E690E060912203BB
:102DB0000E94C705CE01049663EB73E041E00E94D8
:102DC000610581E690E06091B3030E94C7050FC0E2
:102DD00083E293E00E94E806E80104C083E293E006
:102DE0000E94ED0669916623C9F780E094DEDF91C9
:102DF000CF911F910F910895A1E0B0E0E2E0F7E1DB
:102E00000C947A218091A903882309F487C0E0906B
:102E10001603F090170300911803109119038330E3
:102E200009F062C08FE30E942C02182F8630C8F090
:102E300080E594E00E94E8062A988FEF0E94CE0178
:102E400080E00E94CE01082F08C080E00E94CE01E1
:102E5000682F80E594E00E94ED061150B1F72A9AA0
:102E600001C000E00E940B0F1092A903053709F082
:102E700055C083E594E0BE016F5F7F4F41E00E9443
:102E800061058130910559F5998180912203981748
:102E900031F580915704853539F00DC080E594E017
:102EA0000E9403070E949A04809152048823B1F77C
:102EB0000E94ED0433C080915204845080935204E8
:102EC00084E08093510480E594E06AE00E94ED067E
:102ED000E0911203F091130388E009951FC080E58B
:102EE00094E00E94E8061AC0823059F490912103C0
:102EF0008E2D891B883090F00E940B0F1092A90331
:102F00000DC0813059F487E390E00E94A8020E942E
:102F1000840282E08093A903E09221032196E6E0F7
:102F20000C949621C2DD882361F083E08093AE0388
:102F30008091A6039091A70301969093A703809395
:102F4000A6038091AE0381508093AE03882321F0C5
:102F500083E08093A803089581E0DDCD282F8130A0
:102F600091F4289A80910401909105019C01220F0F
:102F7000331F820F931F0E940D0428988091040133
:102F80009091050134C080910401909105012223A4
:102F900009F5289A0E940D042898809104019091C7
:102FA00005019C01220F331F820F931F0E940D0405
:102FB000289A80910401909105010E940D0428989F
:102FC00080910401909105019C01220F331F820F13
:102FD000931F20C0289A0E940D0428988091040114
:102FE000909105019C01220F331F820F931F0E94B5
:102FF0000D04289A80910401909105019C01220FF3
:10300000331F820F931F0E940D04289880910401A2
:10301000909105010C940D04CF93DF93E998229AC7
:103020002A9A8EE190E00E940D042A988EE190E0A9
:103030000E940D042A9A8DE290E00E940D0480E324
:103040000E94800284E690E00E940D042A9880E4A9
:103050000E94CE01C0E0D0E0FE01EA5DFD4F849108
:103060000E94CE012196CD30D105B1F780910801A3
:103070000E94CE01809109010E94CE0180910A0137
:103080000E94CE01C0E0D0E0FE01EA5CFD4F8491D9
:103090000E94CE012196C931D105B1F72A9A2A980A
:1030A0008EE70E94CE018BE290E001C0CE01EC01E0
:1030B00021960E94CC050E94CE01C333D105B1F701
:1030C0002A9A83E30E94800281E00E94120481E038
:1030D00080931403DF91CF910895AF92BF92DF9256
:1030E000EF92FF920F931F93DF93CF930F92CDB781
:1030F000DEB7FC018181843759F4CF01029664E088
:1031000071E00E949705809104019091050113C020
:10311000833709F0AFC08F010E5F1F4F8281823766
:1031200089F4CF01039666E071E00E9497058091D3
:1031300006019091070160E040E20E94F1040E94C4
:10314000ED0404C15A9A8091D2018823B1F4809190
:103150001F01882329F081E08093D00110921F0184
:1031600080912101882329F081E08093D101109280
:10317000210152DF83E00E94120486E30E94800254
:103180008AE30E9480028BE30E9480020E949502E3
:10319000AA24BB2428C0F70181917F01803311F458
:1031A00080E005C0813311F481E001C082E0D6DE09
:1031B000D394FD2DFD3079F7289A809104019091E8
:1031C00005010E940D04289820E08091040190914F
:1031D000050129830E940D0429812F5F2F31A9F752
:1031E0000894A11CB11C8091060190910701A816BA
:1031F000B90620F47801DD24D394CDCF8091D2019B
:10320000882341F080911C03882379F486E30E948F
:10321000800219C08091D001882351F01092D00112
:103220000E94BD0981E080931F010E9484020BC0AF
:103230008091D101882329F01092D1010E94420B84
:1032400002C00E940B0F5A9889E60E949A0483E7F5
:103250000E949A04780101E0F70181917F01803397
:1032600019F0813309F086E40E949A040F5F0D3053
:1032700099F765CF8237B9F480911F01882329F02F
:1032800081E08093D00110921F0180912101882359
:1032900029F081E08093D10110922101BDDE81E00F
:1032A0008093D20153C0863651F5CF010296228118
:1032B000203351F480E18093080180EB8093090171
:1032C00081E780930A0105C068E071E043E00E9455
:1032D000610589E60E949A0486E60E949A048AE3C0
:1032E0000E949A04809108010E945D058091090165
:1032F0000E945D0580910A010E945D0520CF8837FC
:1033000029F58091D001882341F01092D0010E94CC
:10331000BD0981E080931F0111C08091D1018823F4
:1033200029F01092D1010E94420B0EC082E090E081
:103330000E94A80280911C03882319F00E94840235
:1033400003C086E30E9480021092D2010F90CF91B9
:10335000DF911F910F91FF90EF90DF90BF90AF90A2
:1033600008952F923F925F926F927F928F929F92D9
:10337000AF92BF92CF92DF92EF92FF920F931F9383
:10338000DF93CF9300D0CDB7DEB78C01FC018181F4
:10339000833709F085C1198287E090E0D6D7882E5F
:1033A000692EE82EF92EC80102966E010894C11C00
:1033B000D11CB60141E00E94610589815701F501E8
:1033C00081935F01C8010496B60141E00E94610546
:1033D0008981807FF7018183C8010696B60141E0AB
:1033E0000E9461058981F7018283C8010896B601B0
:1033F00041E00E9461058981F7018383C8010A9633
:10340000B60141E00E9461058981F7018683C80108
:103410000C96B60141E00E9461058981F701858320
:10342000C8010E96B60141E00E9461058981F7014D
:1034300084833181082D162D480157E0652E712CAB
:10344000600E711EF80180E02191922F92959F707D
:1034500092278927E615F705B9F78F70832BF501B9
:103460008083C8010696F801DF0131962C911196F0
:103470003C91119723272083E817F907A9F75A9A57
:103480008091D501882309F05FC080911F018823B6
:1034900029F081E08093D30110921F0180912101D6
:1034A000882329F081E08093D40110922101E998CA
:1034B000229A2A9A8EE190E00E940D042A988EE1C9
:1034C00090E00E940D042A9A8DE290E00E940D0483
:1034D00080E30E94800284E690E00E940D042A9816
:1034E00080E40E94CE01EE24FF24F701E15BFD4F52
:1034F00084910E94CE010894E11CF11CF9E2EF16C0
:10350000F10499F72A9A2A988EE70E94CE018BE25D
:1035100090E001C0C7017C010894E11CF11C0E94ED
:10352000CC050E94CE0183E3E816F10499F72A9AAC
:1035300083E30E94800281E00E94120481E0809374
:10354000140383E00E94120486E30E9480028AE34F
:103550000E9480028BE30E9480020E949502289ABA
:1035600087EC94E20E940D04289889E50E941204D9
:1035700085E392E00E940D04CC24DD2455C0CC20CC
:1035800011F027E001C022E0EE24289A86EF99E0AE
:103590002A830E940D04289886EF99E00E940D046A
:1035A000E3942A81E2168CF3289A8CEF92E10E9430
:1035B0000D04289880910E0190910F010E940D0436
:1035C0005801F50121905F01552440E8E42EF12CCB
:1035D000332497012221332180910E0190910F0114
:1035E0002115310529F4289A0E940D04289804C059
:1035F00028980E940D04289A80910E0190910F0145
:103600000E940D045394F52DF83019F0F694E794C8
:10361000E0CFA614B704A9F6289880E090E00E94B5
:103620000D040894C11CD11C80910B0190E0C816B8
:10363000D9060CF4A4CF8091D501882341F0809164
:103640001C03882379F486E30E94800219C08091CC
:10365000D301882351F01092D3010E94BD0981E06B
:1036600080931F010E9484020BC08091D4018823A3
:1036700029F01092D4010E94420B02C00E940B0F4D
:103680005A9889E50E949A0483E70E949A04F401FB
:1036900081914F010E945D0586149704C1F718C0FF
:1036A0008237C9F4C80102966BE071E00E94970569
:1036B00089E50E949A0482E70E949A048AE30E94A4
:1036C0009A0480910B0190E060E040E20E94F104D6
:1036D0000E94ED0453C0843751F5C8010296F801E9
:1036E0002281203339F488ED94E090930D0180938A
:1036F0000C0104C06CE071E00E94970580910C0100
:1037000090910D019695879590930F0180930E01EE
:1037100089E50E949A0484E70E949A048AE30E9441
:103720009A0480910C0190910D0166E0CECF88370C
:1037300029F58091D301882341F01092D3010E9492
:10374000BD0981E080931F0111C08091D4018823BD
:1037500029F01092D4010E94420B0EC082E090E04A
:103760000E94A80280911C03882319F00E94840201
:1037700003C086E30E9480021092D5010F900F9043
:10378000CF91DF911F910F91FF90EF90DF90CF903D
:10379000BF90AF909F908F907F906F905F903F9081
:1037A0002F9008951092B6031092DD0183E080936C
:1037B000DE018FEF8093CB030895DC01EFEDF1E0A4
:1037C0000EC0109751F021819C91291731F422816C
:1037D00011969C9111972917A9F0E80FF11D80818E
:1037E000882321F092E0ED38F90758F3109741F45F
:1037F00082E0ED38F80731F028F0EDE8F2E002C0A1
:10380000E0E0F0E0CF01089587ED91E0D6DF00978A
:1038100099F02091DE01FC013081231778F4E20F4A
:10382000F11D80818093D90189E78093DA0181813C
:103830008093DB0181E0089580E0089580E00895A1
:10384000EF92FF921F93DF93CF930F92CDB7DEB726
:10385000182F80911C0386FF19C084E599830E946C
:103860009A049981612F792F7B0115E0F7018191ED
:103870007F010E945D051150C9F780911C0385FFEF
:1038800003C08AEF0E945D050E94ED040F90CF9166
:10389000DF911F91FF90EF90089586E30E948002D0
:1038A0008091D901833511F48BE901C08BE40E942A
:1038B000120487ED91E065E04CE021E00E940908E8
:1038C0000E94840287ED91E0BBCFE7DF8091D901B0
:1038D000893631F081E08093D60189E28093CB0371
:1038E000089585E390E00E94CC058093B40386E3BD
:1038F00090E00E94CC058093CA038FEF8093BA03B7
:103900008093BC038093BE038093C0038093C20363
:103910008093C4038093C6038093C80343DF10924F
:10392000DF0108956F927F929F92AF92BF92CF92E4
:10393000DF92EF92FF920F931F93DF93CF93CDB758
:10394000DEB728970FB6F894DEBF0FBECDBF6C016F
:103950007C010894E11CF11CC701BE016F5F7F4F21
:1039600045E00E946105E981843008F0B3C0E13090
:10397000A9F4833061F485E390E06A810E94C70571
:1039800086E390E06B810E94C705ABDF31C1809177
:10399000B4030E945D058091CA0397C0E23009F02C
:1039A00050C0813041F081E090E02A81213029F03F
:1039B00080E090E002C081E090E0E82E8091DF019D
:1039C000882321F480E992E00E94E0040FED11E0E9
:1039D0002EC081E00F3D180719F080E20E949A0482
:1039E000F80181810E945D05F80182810E945D05D8
:1039F000EE20C9F08AE30E949A0423E0C22E0FC091
:103A0000FC2DF43028F0C0FE03C08CE20E949A0422
:103A1000F801EC0DF11DC39480810E945D05F80151
:103A20008081C81668F3F8018081080F111DF80124
:103A30008081882309F44BC0F2E00D381F0748F25B
:103A400046C0E33049F480E090E0B7DE2FED31E08E
:103A50002255281B822F39C0E03169F50AEB13E0AB
:103A6000EE24FF24CC24F80180818F3FA1F0CC20EC
:103A700019F080E20E949A048E2D0E945D058AE36F
:103A80000E949A04F80180810E945D05F8018181FD
:103A90000E945D05C3940894E11CF11C0E5F1F4F4A
:103AA000F8E0EF16F104F9F6CC2089F48CE892E006
:103AB0000E94E0040CC0E13151F48091B803909170
:103AC000B9036DE770E0E3D3862F0E945D050E9485
:103AD000ED048EC08091B403E817D0F190E0F0E0DF
:103AE0009C01295F3F4F2E173F0794F13A812091A7
:103AF000CA03321769F53C813F3231F4C6016CE0EC
:103B000042E00E94800874C02D813C32C1F42093B1
:103B1000B70381E090E09093B9038093B80330E05D
:103B2000220F331F220F331F80911A0390911B0322
:103B3000820F931F90931B0380931A0359C0E81BB5
:103B4000F90BEE0FF0E0E654FC4F3083218350C0B8
:103B500080E090E032DE8C01F70101900020E9F76F
:103B60003197EE19FF09F695E7959E2E9394C801BB
:103B7000890D911D8F5D91408F3A9105ACF5F8014B
:103B800090827801AA24BB2421E031E022C03701D1
:103B90000894611C711CC601830F911DB30141E0A3
:103BA0002F8338870E9461052F813885233058F094
:103BB000C501019680FD07C0F7018081843619F4A4
:103BC00081818093B5033E5F2F5F0894A11CB11CD7
:103BD00073012915E0F2F2E00D381F0748F4F801EF
:103BE000E20FF11D108204C086E892E00E94E0041A
:103BF00028960FB6F894DEBF0FBECDBFCF91DF91F0
:103C00001F910F91FF90EF90DF90CF90BF90AF90FA
:103C10009F907F906F900895A7E0B0E0E1E1FEE112
:103C200068C32091CA032A831B828091B70388232B
:103C300041F0833019F487E791E013C08DE790E0FD
:103C400010C030E0277030704DE750E0249FC00175
:103C5000259F900D349F900D1124825B9F48959570
:103C600087959093B9038093B8030AEB13E030E093
:103C70007E010894E11CF11C4CE2D42EF8019081E5
:103C80009F3FC1F08091B403830F89838091B70374
:103C9000882311F0DC8203C09C83F80181818D832D
:103CA000C70165E04CE021E03F830E940908C7019D
:103CB000C7DD3F813F5F0E5F1F4F3830F9F68091BF
:103CC000B703882341F0833019F41092B70303C07F
:103CD00082508093B7032796E7E027C38091D601EF
:103CE000882351F0DADD89E28093CB038091D601FD
:103CF00081508093D601089555CDA0E0B0E0E2E870
:103D0000FEE1F7C2FC01D080E18012810381F480E2
:103D10008FE58093CB031092D6018091B403882362
:103D200029F48091CA03882309F4A8C08091D7019F
:103D30008D1521F48091D8018E1529F033DDD092B4
:103D4000D701E092D8018091B6038F3F09F496C065
:103D50001093D9010093DA01F092DB011123F9F0FD
:103D60008823E9F48091B403F81669F08F2D843626
:103D700051F0812F8355823010F01D3739F48FEFC9
:103D80008093B6037BC0143509F478C0802F807F00
:103D9000803609F073C000670093DA016EC034DD2D
:103DA000882329F48091B603882309F467C08091A1
:103DB000DD01882339F4E091B603F0E0E858FD4FC7
:103DC000E49101C0E82FE33541F4143531F49091CA
:103DD000B6039E5F9093B60304C0E11711F0E2DCD6
:103DE0004DC0882369F08091DE018E5F8093DE01F3
:103DF0000BDD882371F48091B6038E5F8093B60348
:103E00008091B603E82FF0E0E758FD4F14911F3F73
:103E100059F48091D9018093DD01843671F5809148
:103E2000B5038093DB0129C01093D90197E79093E4
:103E3000DA019091B4039093DB018E5F8093B60317
:103E40001092DD018E30B9F487ED91E0B6DCDC0133
:103E5000009781F08C91C82FD0E08DE892E08C1B08
:103E60009D0BCA0FDB1F02C029912D93A817B9071C
:103E7000D8F31C9297DC112309F027DDCDB7DEB70C
:103E8000E7E053C2EF92FF920F931F93CF93DF931C
:103E9000EC01FC0101900020E9F73197E81BF90BD8
:103EA0008981823751F487E390E00E94A8020E9442
:103EB000840281E08093CC0329C0833729F50E2F3B
:103EC0002A988FE70E94CE01802F82500E94CE0157
:103ED000229612E004C089910E94CE011F5F101744
:103EE000D0F32A9A0E94950204C084E690E00E94D2
:103EF0000D048AE30E942C0290E08F779070009767
:103F0000A1F70E94840202C01092CC03CDB7DEB7A5
:103F1000E6E00CC2A0E8B0E0EFE8FFE1E9C1809183
:103F2000CC03882309F454C0813011F58091160325
:103F300090911703A0911803B091190320918D025D
:103F4000281709F445C085E30E942C02813129F429
:103F50008AE30E9480020E9484028091160390915D
:103F60001703A0911803B091190380938D0230C0FC
:103F70008FE30E942C02D82E87FD27C02A988FEF4E
:103F80000E94CE018E010F5F1F4F7801C02E06C028
:103F900080E00E94CE01F70181937F018E2D8C1964
:103FA0008D15B0F32A9A81E080931A0105C0F801BB
:103FB00081918F010E949A04802F8C198D15B8F37E
:103FC0000E94ED048FEF80931A0181E08093CC036F
:103FD000C058DF4FE8E0A8C18091D3049091D40489
:103FE000009721F480911201909113012091140106
:103FF000309115012115310541F42DB73EB740919F
:10400000100150911101241B350B8217930718F4EE
:10401000281B390B02C020E030E0C901089582E47A
:104020000E949A048091D3049091D40465E040E208
:104030000E94F1040E94ED0483E50E949A0480919D
:1040400012019091130165E040E20E94F1040E9488
:10405000ED0485E40E949A04809114019091150169
:1040600065E040E20E94F1040E94ED0486E40E94B3
:104070009A04B2DF65E040E20E94F1040C94ED0482
:104080001F920F920FB60F9211242F933F934F93CD
:104090005F936F937F938F939F93AF93BF93EF93B0
:1040A000FF938091CF03882339F08DEC93E00E9439
:1040B00003078093C60005C08091C1008F7D809367
:1040C000C100FF91EF91BF91AF919F918F917F912F
:1040D0006F915F914F913F912F910F900FBE0F9075
:1040E0001F9018951F920F920FB60F9211242F93C5
:1040F0003F934F935F936F937F938F939F93AF9370
:10410000BF93EF93FF938BB194E089278BB96091B4
:10411000C6008091C000887121F480E594E00E947F
:10412000ED06FF91EF91BF91AF919F918F917F919C
:104130006F915F914F913F912F910F900FBE0F9014
:104140001F90189597FF04C022E02093C0009F772E
:104150009093C5008093C40088E98093C10086E0F5
:104160008093C20008958091C10085FD09C08091AF
:10417000CF03882329F08091C10080628093C10021
:104180000895E0911203F091130381E00995EBCFBC
:104190000F931F93CF93DF93EC0110E0812F90E0FA
:1041A0009C01220F331F280F391FF901E859FF4FD7
:1041B000049127593F4FF90145915491FA01002389
:1041C00091F0209739F480E20E949A04802F0E9497
:1041D0009A0407C08881801721F4CE01099581E0F7
:1041E00003C01F5FDBCF80E0DF91CF911F910F9164
:1041F00008951F9310911A0180931A0135C080E52C
:1042000094E00E9403078A3011F08D3009F5E091A7
:104210000F03EE2349F1F0E0E257FD4F10828EE8E4
:1042200092E0B6DF882389F48CEA92E00E94E004F1
:104230008EE892E00E94CD0484E992E00E94E004BE
:1042400080E090E0A5DF0E94ED0410920F030CC007
:1042500090910F0397FD08C0E92FF0E0E257FD4F62
:1042600080839F5F90930F0380915204882339F6D7
:1042700010931A011F9108952D9A84B18C6284B90C
:10428000249880E58CBD8DB581608DBD0895AA1BF5
:10429000BB1B51E107C0AA1FBB1FA617B70710F031
:1042A000A61BB70B881F991F5A95A9F78095909563
:1042B000BC01CD01089597FB092E07260AD077FD92
:1042C00004D0E5DF06D000201AF4709561957F4F89
:1042D0000895F6F7909581959F4F08952F923F92FC
:1042E0004F925F926F927F928F929F92AF92BF9206
:1042F000CF92DF92EF92FF920F931F93CF93DF93B2
:10430000CDB7DEB7CA1BDB0B0FB6F894DEBF0FBE0E
:10431000CDBF09942A88398848885F846E847D845B
:104320008C849B84AA84B984C884DF80EE80FD805D
:104330000C811B81AA81B981CE0FD11D0FB6F894D3
:10434000DEBF0FBECDBFED010895CF93DF93823066
:10435000910510F482E090E0E091D504F091D6044C
:1043600040E050E020E030E026C0608171816817B5
:104370007907E0F06817790781F48281938121152C
:10438000310531F0D90113969C938E9312972BC06F
:104390009093D6048093D50426C04115510519F099
:1043A0006417750718F4AB01E901DF019F01728101
:1043B0006381E72FF62F3097C1F64115510501F1C2
:1043C000481B590B4430510580F412968D919C91F5
:1043D0001397209719F09B838A8304C09093D60487
:1043E0008093D504FD01329646C0FD01E40FF51F10
:1043F000819391934250504011965C934E933BC0F1
:104400002091D3043091D4042115310541F4209139
:104410001201309113013093D4042093D3042091DE
:104420001401309115012115310541F42DB73EB726
:104430004091100150911101241B350BE091D304E0
:10444000F091D404E217F307A0F42E1B3F0B2817BA
:10445000390778F0AC014E5F5F4F2417350748F0FD
:104460004E0F5F1F5093D4044093D30481939193D4
:1044700002C0E0E0F0E0CF01DF91CF910895CF934B
:10448000DF93009709F491C0FC01329713821282E6
:104490006091D5047091D6046115710581F4208175
:1044A0003181280F391F8091D3049091D404821751
:1044B000930799F5F093D404E093D30476C0DB011D
:1044C00080E090E002C0CD01D901AE17BF0748F4EB
:1044D00012962D913C91139721153105A1F7CD012D
:1044E00021C0B383A283EF01499159919E01240F0A
:1044F000351FA217B30779F42D913C911197240F22
:10450000351F2E5F3F4F3183208312962D913C91B2
:10451000139733832283009729F4F093D604E09312
:10452000D50443C0DC011396FC93EE9312974D9192
:104530005D91A40FB51FEA17FB0769F42081318153
:10454000240F351F2E5F3F4FEC01398328832281D2
:1045500033813B832A83E0E0F0E002C0FB01BC0131
:10456000DB0112968D919C9113970097B9F79B01EF
:104570002E5F3F4F8D919C911197820F931F409119
:10458000D3045091D4044817590779F4309729F48B
:104590001092D6041092D50402C0138212822250C7
:1045A00030403093D4042093D304DF91CF91089509
:1045B000F999FECF92BD81BDF89A992780B50895EB
:1045C000262FF999FECF1FBA92BD81BD20BD0FB62F
:1045D000F894FA9AF99A0FBE01960895F894FFCFCD
:1045E00002323100A401060010B07106D8046C023A
:0645F0002000D7040000CA
:00000001FF
